:020000040800F2
:10000000680600206D0100087501000877010008EE
:10001000790100087B0100087D0100080000000054
:100020000000000000000000000000007F01000848
:10003000810100080000000083010008850100081C
:100040008701000887010008870100088701000870
:100050008701000887010008870100088701000860
:100060008701000887010008870100088701000850
:100070008701000887010008870100088701000840
:100080008701000887010008870100088701000830
:100090008701000887010008870100088701000820
:1000A0008701000887010008870100088701000810
:1000B0008701000887010008870100088701000800
:1000C00087010008870100088701000887010008F0
:1000D00087010008870100088701000887010008E0
:1000E00087010008870100088701000800F002F876
:1000F00000F02CF80AA090E8000C82448344AAF196
:100100000107DA4501D100F021F8AFF2090EBAE893
:100110000F0013F0010F18BFFB1A43F0010318473B
:10012000480B0000580B0000002300240025002687
:10013000103A28BF78C1FBD8520728BF30C148BF4A
:100140000B6070471FB51FBD10B510BD00F031F832
:100150001146FFF7F7FF00F04BFB00F04FF803B438
:10016000FFF7F2FF03BC00F057F800000948804792
:1001700009480047FEE7FEE7FEE7FEE7FEE7FEE789
:10018000FEE7FEE7FEE7FEE704480549054A064BA1
:100190007047000071050008ED00000868000020AD
:1001A000680600206802002068020020704770473F
:1001B0007047754600F02CF8AE4605006946534678
:1001C00020F00700854618B020B5FFF7DDFFBDE839
:1001D00020404FF000064FF000074FF000084FF0AE
:1001E000000BAC46ACE8C009ACE8C009ACE8C009FB
:1001F000ACE8C00921F007018D46704710B50446F0
:10020000AFF300802046BDE81040FFF7A8BF000014
:10021000004870470000002001491820ABBEFEE7EF
:10022000260002007047000088B007900691002069
:100230000590049003900290019000900698C07879
:1002400000F00F0005900698C078C006002806D57B
:10025000FFE706988178059808430590FFE7069820
:10026000007800284BD0FFE7079800680190002035
:100270000390FFE7039807283DD8FFE70399012083
:1002800088400290069800880299084004900498DB
:10029000029988422AD1FFE70398800002900299D0
:1002A0000F2088400090009901988843019005989C
:1002B000029900FA01F10198084301900698C0786C
:1002C000282806D1FFE70399012088400799486153
:1002D0000BE00698C078482806D1FFE70399012073
:1002E000884007990861FFE7FFE7FFE7FFE703980A
:1002F00001300390BEE7019807990860FFE7069870
:100300000088B0F5807F50DBFFE7079840680190D8
:1003100000200390FFE70398072842D8FFE70398DF
:1003200000F1080101208840029006980088029997
:10033000084004900498029988422DD1FFE7039861
:100340008000029002990F20884000900099019847
:10035000884301900598029900FA01F10198084339
:1003600001900698C078282808D1FFE7039800F18B
:1003700008010120884007994861FFE70698C07886
:10038000482808D1FFE7039800F1080101208840C0
:1003900007990861FFE7FFE7FFE703980130039043
:1003A000B9E7019807994860FFE708B07047000077
:1003B00082B00190ADF8021000208DF80100019884
:1003C0008068BDF80210084204D0FFE701208DF8D4
:1003D000010003E000208DF80100FFE79DF8010017
:1003E00002B0704782B00190ADF80210BDF8020073
:1003F0000199486102B0704782B00190ADF80210D7
:10040000BDF802000199086102B0704782B0019006
:100410008DF803109DF8030048B1FFE7019A41F2FF
:100420001801C4F2020108681043086008E0019A4C
:1004300041F21801C4F20201086890430860FFE726
:1004400002B0704780B500F001F880BD84B0002094
:100450000390029041F20001C4F20201086840F4E6
:1004600080300860FFE741F20000C4F2020000683B
:1004700000F400300290039801300390FFE70299E6
:100480000020019039B9FFE70398B0F5A06018BFCC
:1004900001200190FFE70198C0070028E3D1FFE7A2
:1004A00041F20000C4F2020000688003002803D576
:1004B000FFE70120029002E000200290FFE702988F
:1004C000012851D1FFE742F20001C4F2020108689D
:1004D00040F010000860086820F007000860086815
:1004E00040F00200086041F20401C4F202010091F0
:1004F0000868086008680860086840F48060086060
:10050000086820F47C100860086840F4E81008606F
:1005100041F20001C4F20201086840F080700860F6
:10052000FFE741F20000C4F20200006880010028E9
:1005300001D4FFE7F5E741F20401C4F202010868C3
:1005400020F003000860086840F002000860FFE740
:1005500041F20400C4F20200006800F00C00082818
:1005600001D0FFE7F4E700E0FFE704B070470000C8
:1005700080B541F20002C4F20202106840F00100AE
:10058000106041F20401C4F2020108680023CFF6B2
:10059000FF031840086010684FF6FF73CFF6F6634C
:1005A00018401060106820F480201060086820F463
:1005B000FE00086041F20801C4F202014FF41F007E
:1005C0000860FFF73FFF4EF60851CEF200014FF0F2
:1005D0000060086080BD000080B586B004200190F6
:1005E0000121FFF713FF4FF40070ADF81400102045
:1005F0008DF81700032002908DF8160040F60000D9
:10060000C4F20100039005A90491FFF70DFE019BC0
:10061000029A039804994FF4806CADF814C08DF8D9
:1006200017308DF81620FFF7FFFD06B080BD0000E3
:1006300080B582B0FFE740F60000C4F201004FF43D
:100640008061FFF7B5FE012801D0FFE7F3E745F22F
:100650008250C3F6555000F0B5F800200090FFE737
:100660000098072822DCFFE745F28250C3F6D550F8
:1006700000F0A8F89DF8070040088DF8070040F644
:100680000000C4F201004FF48061FFF791FE0128E1
:1006900007D1FFE79DF8070040F080008DF80700C4
:1006A000FFE7FFE7009801300090D9E745F282505C
:1006B000C3F6D55000F086F89DF8070002B080BD63
:1006C00080B584B0ADF80E0040F26000C2F20000C8
:1006D00000680290FFE740F60000C4F201004FF40A
:1006E0000071FFF765FE08B1FFE7F4E740F6000090
:1006F000C4F201004FF40071FFF774FE029800F09D
:1007000075F900F05FF800200190FFE7019840F2D2
:100710006001C2F200018979884226DAFFE7BDF85C
:100720000E00C00748B1FFE740F60000C4F2010028
:100730004FF40071FFF760FE08E040F60000C4F2DD
:1007400001004FF40071FFF74DFEFFE7029800F043
:100750004DF900F037F8BDF80E004008ADF80E0076
:10076000FFE7019801300190D0E740F26000C2F24B
:100770000000007908B1FFE7FFE740F60000C4F28F
:1007800001004FF40071FFF737FE029800F02EF9D8
:1007900000F018F840F26000C2F200004079012831
:1007A0000ED1FFE740F60000C4F201004FF40071E3
:1007B000FFF722FE029800F019F900F003F8FFE7B6
:1007C00004B080BD80B582B00190FFE70198009031
:1007D0000021CBF6807100F03DF8014600980191B0
:1007E000002100F099F808B9FFE7EFE702B080BDFB
:1007F00080B584B0002001900390FFF7EDFE019AD0
:100800004FF416500823114600F00AF8FFE748207D
:10081000FFF756FFFFF70CFF8DF80B00F7E700001E
:1008200082B001908DF803108DF802208DF8013010
:10083000019840F26001C2F2000108609DF80300D7
:1008400008719DF8010088719DF80200487102B09E
:100850007047000090EA010F48BF81F0004100F1AD
:100860009481421A3CBF801A89184FEAD052A2EBF9
:10087000D1534FF07F4C1CEA410F18BF9CEA026F26
:1008800000F03B804FF0004C4CEA00204CEA012184
:1008900021FA03FC10EB0C0C1ED202F1FF325FEACE
:1008A0001C2040EBC25038BF70471CF07F0F4FEA4E
:1008B000400C18BFBCF17F4F38BF7047C3F1200315
:1008C000994008BF20F00100BCF17F4F38BF70474E
:1008D000A0F1C04000F04CB94FEA3C00000A40EBE8
:1008E000C25028BF1CF0FF0F4FEA400CE6D018BFE3
:1008F000BCF17F4F38BF7047EAE79CEA026F05D032
:1009000010EA5C0F08BF00F00040704710B500F01F
:10091000E9F800BF64FBBE3E10B500F033F80CBF31
:100920000120002010BD10B500F02CF814BF0120EC
:10093000002010BD10B500F06DF88CBF0120002024
:1009400010BD10B500F066F82CBF0120002010BDCE
:1009500010B500F093F894BF0120002010BD10B531
:1009600000F08CF834BF0120002010BD401058BFAB
:10097000C0F14040491058BFC1F140418142EFF3FE
:100980000080704750EA010C00F113801CF5000F45
:1009900058BFBCF5000F01D48842704707D710F547
:1009A000000F58BF11F5000F15D4884270478942D7
:1009B00070471CF5000F04D5BCF5000FF7D5814238
:1009C00070474FF0807C1CEB400F38BF1CEB410F91
:1009D00001D28142704710B500F084F8922449009A
:1009E0004FF000504FF08051FFF7C0BFB0FA80F3D6
:1009F00010FA03F2C3F19D030AD0D90501EB1220CE
:100A0000530638BF704700F1010008BF20F0010015
:100A10007047000050EA010C00F113801CF5000F34
:100A200058BFBCF5000F01D48842704707D710F5B6
:100A3000000F58BF11F5000F15D488427047894246
:100A400070471CF5000F04D5BCF5000FF7D58142A7
:100A500070474FF0807C1CEB400F38BF1CEB410F00
:100A600001D28142704710B500F03CF89224490051
:100A70004FF080504FF00051FFF778BF50EA010C63
:100A800000F113801CF5000F58BFBCF5000F01D416
:100A90008842704707D710F5000F58BF11F5000FB7
:100AA00015D488427047894270471CF5000F04D561
:100AB000BCF5000FF7D5814270474FF0807C1CEBEE
:100AC000400F38BF1CEB410F01D28142704710B577
:100AD00000F008F8922449004FF000504FF0805188
:100AE000FFF744BF0EF1020E2EF0030E5EF8044B2A
:100AF000244204D44FEA4102B2F17F4F11D84FEAA9
:100B00004003B3F17F4F0CD80ED14FEAD07C0CEBF1
:100B10004C0C0CF1020CB2F17F4F08BF4CEBD17CB6
:100B200004E04FF0080C01E04FEAD17C0CEB4C03E1
:100B300024FA03F404F00704B4F1040C06D20EEB1B
:100B4000840CBDE810404CF0010C6047DFE80CF06D
:100B5000070802024FF00040A0F5800010BD0846D3
:100B6000420018BFD2F1807288BF00F0004010BD73
:100B7000FF2141EAD050C0057047000090EA010F04
:100B800048BF81F000413FF56CAE421A04D882F0B4
:100B90000042A0EB020011444FEAD052A2EBD15325
:100BA0004FF07F4C1CEA410F18BF9CEA026F4AD0FD
:100BB0004FF0004C4CEA00204CEA012121FA03FCE2
:100BC000B0EB0C0C0FD412F0FE0F36D05FEA4C00E5
:100BD0001DD5001240EBC25038BF70471CF03F0FCC
:100BE00018BF70470BE05FEA1C20A2F1010240EB46
:100BF000C25038BF70471CF07F0F18BF7047C3F159
:100C00002003994014BF401E20F0010070474FEAB6
:100C10001223800808BF7047B0FA80FCA2EB0C02D8
:100C2000CCF1280C60FA0CF093EA122F04BF00EB11
:100C3000C25070474FEAC3707047130A5FEADC1076
:100C400008BF7047F6E79CEA026F04D010EA5C0F19
:100C500008BF0020704710B5FFF744FF40DFF63EA5
:100C600081F0004070470000780C00080000002070
:080C70006806000028010008DD
:04000005080000ED02
:00000001FF
