:020000040800F2
:100000007006002089010008910100089301000892
:100010009501000897010008990100080000000000
:100020000000000000000000000000009B0100082C
:100030009D010008000000009F01000899050008CC
:10004000A3010008A3010008A3010008A301000800
:10005000A3010008A3010008A3010008A3010008F0
:10006000A3010008A3010008A3010008A3010008E0
:10007000A3010008A3010008A3010008A3010008D0
:10008000A3010008A3010008A3010008A3010008C0
:10009000A3010008A3010008A3010008A3010008B0
:1000A000A3010008A3010008A3010008A3010008A0
:1000B000A3010008A3010008A3010008A301000890
:1000C000A3010008A3010008A3010008A301000880
:1000D000A3010008A3010008A3010008A301000870
:1000E000A3010008A3010008A301000800F002F822
:1000F00000F03AF80AA090E8000C82448344AAF188
:100100000107DA4501D100F02FF8AFF2090EBAE885
:100110000F0013F0010F18BFFB1A43F0010318473B
:100120001C0700003C070000103A24BF78C878C1C3
:10013000FAD8520724BF30C830C144BF04680C60ED
:10014000704700000023002400250026103A28BF35
:1001500078C1FBD8520728BF30C148BF0B60704739
:100160001FB51FBD10B510BD00F031F81146FFF7E7
:10017000F7FF00F035FB00F04FF803B4FFF7F2FF94
:1001800003BC00F057F800000948804709480047C1
:10019000FEE7FEE7FEE7FEE7FEE7FEE7FEE7FEE737
:1001A000FEE7FEE704480549054A064B7047000094
:1001B000CD060008ED000008700000207006002049
:1001C000700200207002002070477047704775462B
:1001D00000F02CF8AE4605006946534620F00700B3
:1001E000854618B020B5FFF7DDFFBDE820404FF091
:1001F00000064FF000074FF000084FF0000BAC4630
:10020000ACE8C009ACE8C009ACE8C009ACE8C0097A
:1002100021F007018D46704710B50446AFF300800A
:100220002046BDE81040FFF7A8BF00000048704717
:100230000800002001491820ABBEFEE7260002009E
:100240007047000088B00790069100200590049048
:1002500003900290019000900698C07800F00F0083
:1002600005900698C078C006002806D5FFE70698D6
:100270008178059808430590FFE7069800780028E4
:100280004BD0FFE707980068019000200390FFE73C
:10029000039807283DD8FFE7039901208840029082
:1002A00006980088029908400490049802998842B0
:1002B0002AD1FFE703988000029002990F2088401E
:1002C000009000990198884301900598029900FADE
:1002D00001F10198084301900698C078282806D1BA
:1002E000FFE7039901208840079948610BE00698D1
:1002F000C078482806D1FFE7039901208840079974
:100300000861FFE7FFE7FFE7FFE70398013003908D
:10031000BEE7019807990860FFE706980088B0F5E6
:10032000807F50DBFFE70798406801900020039032
:10033000FFE70398072842D8FFE7039800F1080178
:100340000120884002900698008802990840049095
:100350000498029988422DD1FFE70398800002900B
:1003600002990F20884000900099019888430190DD
:100370000598029900FA01F1019808430190069846
:10038000C078282808D1FFE7039800F10801012070
:10039000884007994861FFE70698C078482808D147
:1003A000FFE7039800F108010120884007990861E0
:1003B000FFE7FFE7FFE7039801300390B9E70198F3
:1003C00007994860FFE708B07047000082B00190CD
:1003D000ADF80210BDF802000199086102B0704743
:1003E00082B001908DF803109DF8030048B1FFE73B
:1003F000019A41F21801C4F2020108681043086032
:1004000008E0019A41F21801C4F202010868904321
:100410000860FFE702B0704780B500F001F880BDCA
:1004200084B000200390029041F20001C4F2020166
:10043000086840F480300860FFE741F20000C4F231
:100440000200006800F4003002900398013003902D
:10045000FFE702990020019039B9FFE70398B0F552
:10046000A06018BF01200190FFE70198C007002895
:10047000E3D1FFE741F20000C4F20200006880030C
:10048000002803D5FFE70120029002E0002002903F
:10049000FFE70298012851D1FFE742F20001C4F2C0
:1004A0000201086840F010000860086820F00700AA
:1004B0000860086840F00200086041F20401C4F2DC
:1004C000020100910868086008680860086840F444
:1004D00080600860086820F47C100860086840F4B8
:1004E000E810086041F20001C4F20201086840F01F
:1004F00080700860FFE741F20000C4F2020000686B
:100500008001002801D4FFE7F5E741F20401C4F2BD
:100510000201086820F003000860086840F002004B
:100520000860FFE741F20400C4F20200006800F036
:100530000C00082801D0FFE7F4E700E0FFE704B073
:100540007047000080B582B0009000980138B0F18B
:10055000807F03D3FFE70120019019E00098013864
:100560004EF21401CEF2000108604FF0FF300F216F
:1005700000F0F4F84EF21801CEF2000100200860FD
:100580004EF21002CEF20002072111600190FFE747
:10059000019802B080BD000040F26C01C2F200017F
:1005A000086801300860704784B000200390029012
:1005B000019041F20400C4F20200006800F00C0057
:1005C00003900398009040B1FFE7009804280ED0F4
:1005D000FFE70098082814D056E040F20001C2F26C
:1005E000000141F20020C0F27A00086056E040F2BB
:1005F0000001C2F2000141F20020C0F27A0008605E
:100600004CE041F20400C4F20200016801F47011F0
:100610000291006800F4803001900299022000EB02
:1006200091400290019860B9FFE7029840F60011EE
:10063000C0F23D01484340F20001C2F200010860EF
:1006400021E041F20400C4F20200006880030028A7
:100650000CD5FFE7029840F60011C0F23D01484377
:1006600040F20001C2F2000108600BE0029841F282
:100670000021C0F27A01484340F20001C2F20001B9
:100680000860FFE7FFE709E040F20001C2F2000165
:1006900041F20020C0F27A000860FFE741F2040056
:1006A000C4F202000068C0B2010940F62C00C0F696
:1006B0000000405C0390039A40F20001C2F2000186
:1006C0000868D040086004B07047000080B541F26F
:1006D0000002C4F20202106840F00100106041F212
:1006E0000401C4F2020108680023CFF6FF0318409A
:1006F000086010684FF6FF73CFF6F663184010607D
:10070000106820F480201060086820F4FE00086063
:1007100041F20801C4F202014FF41F000860FFF724
:100720007BFE4EF60851CEF200014FF000600860EB
:1007300080BD000080B5FFF737FF40F20000C2F235
:100740000000006844F6D351C1F26201A0FB011021
:100750008009FFF7F7FEFFF71FFF80BD82B08DF81D
:10076000070000919DF9070000280AD4FFE70098D0
:1007700000019DF907104EF20042CEF200028854AB
:100780000BE0009800019DF8071001F00F014EF6F4
:100790001452CEF200028854FFE702B07047000006
:1007A00040F26C00C2F200000068704780B582B071
:1007B000102000900121FFF713FE00988DF807002C
:1007C0004FF40050ADF8040003208DF8060041F20C
:1007D0000000C4F2010001A9FFF734FD02B080BDA2
:1007E00080B582B000200190FFF7A4FFFFF7DEFF85
:1007F000FFE7FFF7D5FF40F26801C2F20001097878
:10080000401AB0F57A7F10D3FFE741F20000C4F23E
:1008100001004FF40051FFF7D9FDFFF7C1FF40F28F
:100820006801C2F200010870FFE7E2E70000000083
:100830000000000001020304060708096008000820
:1008400000000020080000002801000868080008D7
:1008500008000020680600004401000800000000B5
:0808600000A24A0400000000A0
:04000005080000ED02
:00000001FF
