:020000040800F2
:10000000D006002089010008910100089301000832
:100010009501000897010008990100080000000000
:100020000000000000000000000000009B0100082C
:100030009D010008000000009F010008E50700087E
:10004000A3010008A3010008A3010008A301000800
:10005000A3010008A3010008A3010008A3010008F0
:10006000A3010008A3010008A3010008A3010008E0
:10007000A3010008A3010008A3010008A3010008D0
:10008000A3010008A3010008A3010008A3010008C0
:10009000A3010008A3010008A3010008A3010008B0
:1000A000A3010008A3010008A3010008A3010008A0
:1000B000A3010008A301000800000000A30100083C
:1000C000A30100080000000000000000A3010008D8
:1000D00000000000A3010008A301000800000000C8
:1000E000A3010008A3010008A301000800F002F822
:1000F00000F03AF80AA090E8000C82448344AAF188
:100100000107DA4501D100F02FF8AFF2090EBAE885
:100110000F0013F0010F18BFFB1A43F0010318473B
:10012000680A0000880A0000103A24BF78C878C125
:10013000FAD8520724BF30C830C144BF04680C60ED
:10014000704700000023002400250026103A28BF35
:1001500078C1FBD8520728BF30C148BF0B60704739
:100160001FB51FBD10B510BD00F031F81146FFF7E7
:10017000F7FF00F0CBFC00F04FF803B4FFF7F2FFFD
:1001800003BC00F057F800000948804709480047C1
:10019000FEE7FEE7FEE7FEE7FEE7FEE7FEE7FEE737
:1001A000FEE7FEE704480549054A064B7047000094
:1001B00019090008ED000008D0000020D00600203A
:1001C000D0020020D002002070477047704775466B
:1001D00000F02CF8AE4605006946534620F00700B3
:1001E000854618B020B5FFF7DDFFBDE820404FF091
:1001F00000064FF000074FF000084FF0000BAC4630
:10020000ACE8C009ACE8C009ACE8C009ACE8C0097A
:1002100021F007018D46704710B50446AFF300800A
:100220002046BDE81040FFF7A8BF00000048704717
:100230003800002001491820ABBEFEE7260002006E
:100240007047000080B584B0039004208DF80B0047
:100250004FF4302000F0DCF88DF80B009DF80B0017
:10026000042820D1FFE742F21001C4F202010191FB
:10027000086840F002000860039842F21402C4F2D9
:1002800002021060086840F0400008604FF430201F
:1002900000F0BEF801998DF80B00086841F6FD7278
:1002A00010400860FFE79DF80B0004B080BD00001F
:1002B00081B004208DF8030042F20C00C4F2020069
:1002C0000068C00720B1FFE701208DF803001FE0A0
:1002D00042F20C00C4F2020000684007002804D576
:1002E000FFE702208DF8030011E042F20C00C4F297
:1002F00002000068C006002804D5FFE703208DF83F
:10030000030003E004208DF80300FFE7FFE7FFE7A9
:100310009DF8030001B0704782B0019000208DF875
:1003200003000198012811D1FFE742F21C00C4F23A
:1003300002000068C00720B1FFE701208DF803002C
:1003400003E000208DF80300FFE711E042F20C000B
:10035000C4F2020000680199084204D0FFE70120BE
:100360008DF8030003E000208DF80300FFE7FFE7AE
:100370009DF8030002B0704742F21001C4F202017E
:10038000086840F0800008607047000080B584B0C5
:100390000390ADF80A1004208DF809004FF40050C6
:1003A00000F036F88DF809009DF8090004281AD1EC
:1003B000FFE742F21001C4F202010191086840F027
:1003C00001000860BDF80A00039908804FF400504E
:1003D00000F01EF801998DF80900086841F6FE72D8
:1003E00010400860FFE79DF8090004B080BD0000E0
:1003F00042F20401C4F2020140F22310C4F2675039
:10040000086048F6AB10CCF6EF500860704700006B
:1004100080B584B0039004208DF80B00FFF748FFEF
:100420008DF80B00FFE79DF80B10002001290190CB
:1004300006D1FFE70398002818BF01200190FFE7CD
:100440000198C00740B1FFE7FFF732FF8DF80B00BE
:10045000039801380390E6E7039820B9FFE70520E9
:100460008DF80B00FFE79DF80B0004B080BD000085
:1004700080B582B010200090012100F0D7F80098DC
:100480004FF40051ADF804108DF8070003208DF8EB
:10049000060041F20000C4F2010001A900F002F8D8
:1004A00002B080BD88B007900691002005900490AE
:1004B00003900290019000900698C07800F00F0021
:1004C00005900698C078C006002806D5FFE7069874
:1004D0008178059808430590FFE706980078002882
:1004E0004BD0FFE707980068019000200390FFE7DA
:1004F000039807283DD8FFE7039901208840029020
:10050000069800880299084004900498029988424D
:100510002AD1FFE703988000029002990F208840BB
:10052000009000990198884301900598029900FA7B
:1005300001F10198084301900698C078282806D157
:10054000FFE7039901208840079948610BE006986E
:10055000C078482806D1FFE7039901208840079911
:100560000861FFE7FFE7FFE7FFE70398013003902B
:10057000BEE7019807990860FFE706980088B0F584
:10058000807F50DBFFE707984068019000200390D0
:10059000FFE70398072842D8FFE7039800F1080116
:1005A0000120884002900698008802990840049033
:1005B0000498029988422DD1FFE7039880000290A9
:1005C00002990F208840009000990198884301907B
:1005D0000598029900FA01F10198084301900698E4
:1005E000C078282808D1FFE7039800F1080101200E
:1005F000884007994861FFE70698C078482808D1E5
:10060000FFE7039800F1080101208840079908617D
:10061000FFE7FFE7FFE7039801300390B9E7019890
:1006200007994860FFE708B07047000082B001906A
:100630008DF803109DF8030048B1FFE7019A41F2DD
:100640001801C4F2020108681043086008E0019A2A
:1006500041F21801C4F20201086890430860FFE704
:1006600002B0704780B500F001F880BD84B0002072
:100670000390029041F20001C4F20201086840F4C4
:1006800080300860FFE741F20000C4F20200006819
:1006900000F400300290039801300390FFE70299C4
:1006A0000020019039B9FFE70398B0F5A06018BFAA
:1006B00001200190FFE70198C0070028E3D1FFE780
:1006C00041F20000C4F2020000688003002803D554
:1006D000FFE70120029002E000200290FFE702986D
:1006E000012851D1FFE742F20001C4F2020108687B
:1006F00040F010000860086820F0070008600868F3
:1007000040F00200086041F20401C4F202010091CD
:100710000868086008680860086840F4806008603D
:10072000086820F47C100860086840F4E81008604D
:1007300041F20001C4F20201086840F080700860D4
:10074000FFE741F20000C4F20200006880010028C7
:1007500001D4FFE7F5E741F20401C4F202010868A1
:1007600020F003000860086840F002000860FFE71E
:1007700041F20400C4F20200006800F00C000828F6
:1007800001D0FFE7F4E700E0FFE704B070470000A6
:1007900080B582B0009000980138B0F1807F03D31B
:1007A000FFE70120019019E0009801384EF2140192
:1007B000CEF2000108604FF0FF300F2100F0F4F896
:1007C0004EF21801CEF20001002008604EF2100235
:1007D000CEF20002072111600190FFE7019802B0FC
:1007E00080BD000040F2C801C2F20001086801307B
:1007F0000860704784B0002003900290019041F29D
:100800000400C4F20200006800F00C00039003989A
:10081000009040B1FFE7009804280ED0FFE7009851
:10082000082814D056E040F22C01C2F2000141F237
:100830000020C0F27A00086056E040F22C01C2F2BB
:10084000000141F20020C0F27A0008604CE041F261
:100850000400C4F20200016801F470110291006802
:1008600000F4803001900299022000EB9140029048
:10087000019860B9FFE7029840F60011C0F23D010F
:10088000484340F22C01C2F20001086021E041F22D
:100890000400C4F202000068800300280CD5FFE7C2
:1008A000029840F60011C0F23D01484340F22C018D
:1008B000C2F2000108600BE0029841F20021C0F290
:1008C0007A01484340F22C01C2F200010860FFE7C0
:1008D000FFE709E040F22C01C2F2000141F20020E2
:1008E000C0F27A000860FFE741F20400C4F202009F
:1008F0000068C0B2010940F67830C0F60000405CE4
:100900000390039A40F22C01C2F200010868D04023
:10091000086004B07047000080B541F20002C4F2E4
:100920000202106840F00100106041F20401C4F2BC
:10093000020108680023CFF6FF0318400860106822
:100940004FF6FF73CFF6F66318401060106820F47E
:1009500080201060086820F4FE00086041F2080161
:10096000C4F202014FF41F000860FFF77BFE4EF651
:100970000851CEF200014FF00060086080BD000019
:1009800080B5FFF737FF40F22C00C2F2000000688C
:1009900044F6D351C1F26201A0FB01108009FFF7B8
:1009A000F7FEFFF71FFF80BD82B08DF807000091B2
:1009B0009DF9070000280AD4FFE7009800019DF97F
:1009C00007104EF20042CEF2000288540BE000986D
:1009D00000019DF8071001F00F014EF61452CEF2FF
:1009E00000028854FFE702B07047000080B582B073
:1009F000019000F051F8FFE70120FFF78DFC01287E
:100A000001D1FFE7F8E70198FFF71CFC00F002F8BE
:100A100002B080BD80B5FFF7AFFC80BD80B584B06B
:100A200003900291ADF80620FFE70120FFF774FC68
:100A3000012801D1FFE7F8E70020ADF80400FFE747
:100A4000BDF80400BDF8061088421ADAFFE70398E3
:100A5000BDF804104058ADF802009DF8020002995C
:100A6000BDF8042088549DF80300029ABDF80410D4
:100A700011444870FFE7BDF804000230ADF80400EF
:100A8000DEE7FFE70120FFF747FC012801D1FFE780
:100A9000F8E704B080BD000080B5FFF7A9FC80BD79
:100AA00080B584B003900291ADF80620FFF7F4FF03
:100AB000FFE70120FFF730FC012801D1FFE7F8E74D
:100AC0000020ADF80400FFE7BDF80400BDF80610F3
:100AD00088420FDAFFE70398BDF80420104402991A
:100AE000895AFFF753FCFFE7BDF804000230ADF868
:100AF0000400E9E7FFE70120FFF70EFC012801D120
:100B0000FFE7F8E7FFF786FF04B080BD80B584B04B
:100B100000200390FFF734FFFFF7AAFC4FF60040D8
:100B2000C0F601000190FFF761FF019840F230012B
:100B3000C2F2000104220092FFF7B2FF009A01986E
:100B400040F2C401C2F20001FFF768FF0198FFF70D
:100B50004DFF019840F20001C2F2000129220292E9
:100B6000FFF79EFF0198029A40F29801C2F200013D
:100B7000FFF754FFFFE7FEE7000000000000000061
:100B80000102030406070809A80B00080000002062
:100B90003800000028010008E00B000838000020A1
:100BA00098060000440100084C4544000000000085
:100BB0000000000000000000000000000000000035
:100BC000000000000000312E310000000000000095
:100BD0004500000000A24A041FCC5B070000000093
:04000005080000ED02
:00000001FF
