:020000040800F2
:10000000A80600208901000891010008930100085A
:100010009501000897010008990100080000000000
:100020000000000000000000000000009B0100082C
:100030009D010008000000009F0100088D060008D7
:10004000A3010008A3010008A3010008A301000800
:10005000A3010008A3010008A3010008A3010008F0
:10006000A3010008A3010008A3010008A3010008E0
:10007000A3010008A3010008A3010008A3010008D0
:10008000A3010008A3010008A3010008A3010008C0
:10009000A3010008A3010008A3010008A3010008B0
:1000A000A3010008A3010008A3010008A3010008A0
:1000B000A3010008A3010008A3010008A301000890
:1000C000A3010008A3010008A3010008A301000880
:1000D000A3010008A3010008A3010008A301000870
:1000E000A3010008A3010008A301000800F002F822
:1000F00000F03AF80AA090E8000C82448344AAF188
:100100000107DA4501D100F02FF8AFF2090EBAE885
:100110000F0013F0010F18BFFB1A43F0010318473B
:100120004C0A00006C0A0000103A24BF78C878C15D
:10013000FAD8520724BF30C830C144BF04680C60ED
:10014000704700000023002400250026103A28BF35
:1001500078C1FBD8520728BF30C148BF0B60704739
:100160001FB51FBD10B510BD00F031F81146FFF7E7
:10017000F7FF00F0C5FC00F04FF803B4FFF7F2FF03
:1001800003BC00F057F800000948804709480047C1
:10019000FEE7FEE7FEE7FEE7FEE7FEE7FEE7FEE737
:1001A000FEE7FEE704480549054A064B7047000094
:1001B000C1070008ED000008A8000020A8060020E4
:1001C000A8020020A80200207047704770477546BB
:1001D00000F02CF8AE4605006946534620F00700B3
:1001E000854618B020B5FFF7DDFFBDE820404FF091
:1001F00000064FF000074FF000084FF0000BAC4630
:10020000ACE8C009ACE8C009ACE8C009ACE8C0097A
:1002100021F007018D46704710B50446AFF300800A
:100220002046BDE81040FFF7A8BF00000048704717
:100230000800002001491820ABBEFEE7260002009E
:100240007047000083B002900191ADF80220019840
:1002500002990861BDF802000299888203B07047D4
:1002600088B00790069100200590049003900290BA
:10027000019000900698C07800F00F000590069855
:10028000C078C006002806D5FFE706988178059853
:1002900008430590FFE70698007800284BD0FFE759
:1002A00007980068019000200390FFE70398072853
:1002B0003DD8FFE703990120884002900698008806
:1002C0000299084004900498029988422AD1FFE7D5
:1002D00003988000029002990F20884000900099B6
:1002E0000198884301900598029900FA01F101985C
:1002F000084301900698C078282806D1FFE70399A3
:1003000001208840079948610BE00698C07848288A
:1003100006D1FFE703990120884007990861FFE7AC
:10032000FFE7FFE7FFE7039801300390BEE701987E
:1003300007990860FFE706980088B0F5807F50DBDA
:10034000FFE707984068019000200390FFE70398BB
:10035000072842D8FFE7039800F1080101208840F0
:100360000290069800880299084004900498029927
:1003700088422DD1FFE703988000029002990F2058
:10038000884000900099019888430190059802994F
:1003900000FA01F10198084301900698C0782828D6
:1003A00008D1FFE7039800F1080101208840079970
:1003B0004861FFE70698C078482808D1FFE703980E
:1003C00000F108010120884007990861FFE7FFE775
:1003D000FFE7039801300390B9E701980799486057
:1003E000FFE708B07047000082B00190ADF802103E
:1003F00000208DF8010001988068BDF802100842C5
:1004000004D0FFE701208DF8010003E000208DF803
:100410000100FFE79DF8010002B0704782B0019033
:10042000ADF80210BDF802000199086102B07047F2
:1004300083B00290ADF806100298C0680090009A50
:10044000BDF8060002EA0001904340EA014002992B
:10045000086103B07047000082B00190ADF802104F
:100460008DF801209DF8010028B1FFE7BDF80200DA
:100470000199086104E0BDF8020001994861FFE7B5
:1004800002B0704780B584B01420012100F022F83A
:1004900003200190ADF80C0048208DF80F0040F6C5
:1004A0000000C4F2010003A90291FFF7D9FE0198F0
:1004B00002994FF46042ADF80C2010228DF80F2005
:1004C0008DF80E0041F20000C4F20100FFF7C8FEF3
:1004D00004B080BD82B001908DF803109DF8030038
:1004E00048B1FFE7019A41F21801C4F2020108681D
:1004F0001043086008E0019A41F21801C4F20201B9
:10050000086890430860FFE702B0704780B500F0CC
:1005100001F880BD84B000200390029041F20001F8
:10052000C4F20201086840F480300860FFE741F23D
:100530000000C4F20200006800F40030029003984A
:1005400001300390FFE702990020019039B9FFE7DD
:100550000398B0F5A06018BF01200190FFE7019853
:10056000C0070028E3D1FFE741F20000C4F2020017
:1005700000688003002803D5FFE70120029002E015
:1005800000200290FFE70298012851D1FFE742F2D4
:100590000001C4F20201086840F010000860086819
:1005A00020F007000860086840F00200086041F28F
:1005B0000401C4F20201009108680860086808603C
:1005C000086840F480600860086820F47C100860C7
:1005D000086840F4E810086041F20001C4F202012A
:1005E000086840F080700860FFE741F20000C4F244
:1005F000020000688001002801D4FFE7F5E741F21E
:100600000401C4F20201086820F0030008600868D1
:1006100040F002000860FFE741F20400C4F202006B
:10062000006800F00C00082801D0FFE7F4E700E0C4
:10063000FFE704B07047000080B582B000900098DA
:100640000138B0F1807F03D3FFE70120019019E06A
:10065000009801384EF21401CEF2000108604FF00C
:10066000FF300F2100F0F4F84EF21801CEF2000135
:10067000002008604EF21002CEF200020721116045
:100680000190FFE7019802B080BD000040F2A40194
:10069000C2F20001086801300860704784B0002091
:1006A00003900290019041F20400C4F2020000683D
:1006B00000F00C0003900398009040B1FFE7009811
:1006C00004280ED0FFE70098082814D056E040F226
:1006D0000001C2F2000141F20020C0F27A0008607D
:1006E00056E040F20001C2F2000141F20020C0F2E7
:1006F0007A0008604CE041F20400C4F20200016894
:1007000001F470110291006800F4803001900299A8
:10071000022000EB91400290019860B9FFE7029837
:1007200040F60011C0F23D01484340F20001C2F220
:100730000001086021E041F20400C4F202000068F8
:10074000800300280CD5FFE7029840F60011C0F2A4
:100750003D01484340F20001C2F2000108600BE095
:10076000029841F20021C0F27A01484340F20001B0
:10077000C2F200010860FFE7FFE709E040F2000174
:10078000C2F2000141F20020C0F27A000860FFE7E7
:1007900041F20400C4F202000068C0B2010940F650
:1007A0005C30C0F60000405C0390039A40F2000108
:1007B000C2F200010868D040086004B07047000031
:1007C00080B541F20002C4F20202106840F001005C
:1007D000106041F20401C4F2020108680023CFF660
:1007E000FF031840086010684FF6FF73CFF6F663FA
:1007F00018401060106820F480201060086820F411
:10080000FE00086041F20801C4F202014FF41F002B
:100810000860FFF77BFE4EF60851CEF200014FF064
:100820000060086080BD000080B5FFF737FF40F230
:100830000000C2F20000006844F6D351C1F2620128
:10084000A0FB01108009FFF7F7FEFFF71FFF80BD37
:1008500082B08DF8070000919DF9070000280AD4A6
:10086000FFE7009800019DF907104EF20042CEF21A
:10087000000288540BE0009800019DF8071001F079
:100880000F014EF61452CEF200028854FFE702B078
:100890007047000081B0009001B0704781B00090B7
:1008A00001B0704780B582B00190019840F26801B4
:1008B000C2F20001884228D1FFE740F2A000C2F254
:1008C000000000780146009140B1FFE70098012840
:1008D0000BD0FFE7009802280ED014E040F2A001F0
:1008E000C2F20001012008700EE040F2A001C2F245
:1008F00000010220087007E040F2A001C2F20001EE
:100900000020087000E0FFE711E0019840F280014C
:10091000C2F20001884209D1FFE741F20000C4F2AF
:1009200001004FF48041FFF779FDFFE7FFE702B0D8
:1009300080BD000081B0009001B0704780B582B0EA
:10094000019001990869898AFFF74EFD8DF803002F
:100950009DF803000199497888420CD0FFE79DF883
:1009600003000199487001990120C87000F05AF8FD
:1009700001994860FFE70198C07878B1FFE700F07F
:1009800051F801994968401A0F2807D3FFE70199E8
:100990004878087001990020C870FFE7019908782D
:1009A0008978884227D0FFE70199012008730198D0
:1009B000007840B9FFE70198FFF774FF00F032F8C4
:1009C0000199886013E000F02DF801998968401AB8
:1009D000B0F57A7F04D8FFE70198FFF75BFFFFE7E8
:1009E0000198FFF7A7FF019900200873FFE701991D
:1009F00008788870FFE70198007B88B1FFE700F076
:100A000011F801998968401A40F6B831884207D335
:100A1000FFE70198FFF742FF019900200873FFE705
:100A200002B080BD40F2A400C2F20000006870472E
:100A300080B5FFF7F7FF40F29801C2F200010968A4
:100A4000401AB0F5FA7F10D3FFE741F20000C4F27C
:100A500001004FF40051FFF7EBFCFFF7E3FF40F21A
:100A60009801C2F200010860FFE780BD80B5FFF782
:100A7000D9FF40F29C01C2F200010968401A6428C3
:100A800010D3FFE741F20000C4F201004FF48041AF
:100A9000FFF7CEFCFFF7C6FF40F29C01C2F2000157
:100AA0000860FFE780BD000080B582B040F2A00082
:100AB000C2F2000000780146019140B1FFE70198C1
:100AC000012807D0FFE70198022806D008E000F0CF
:100AD0000BF806E0FFF7ACFF03E0FFF7C7FF00E00D
:100AE000FFE702B080BD000080B541F20000C4F213
:100AF00001004FF4C0410022FFF7AEFC80BD0000B2
:100B000080B582B000200190FFF75AFEFFF78CFEFF
:100B1000FFF7B8FC40F26800C2F2000040F60001A6
:100B2000C4F2010100910122FFF78CFB009940F211
:100B30008000C2F200000222FFF784FBFFE740F2D0
:100B40006800C2F20000FFF7F9FE40F28000C2F236
:100B50000000FFF7F3FEFFF7A7FFF0E7000000003B
:100B6000000000000102030406070809900B0008BA
:100B7000000000200800000028010008980B000871
:100B800008000020A006000044010008000000004A
:080B900000A24A04000000006D
:04000005080000ED02
:00000001FF
