:020000040800F2
:10000000600600206D0100087501000877010008F6
:10001000790100087B0100087D0100080000000054
:100020000000000000000000000000007F01000848
:10003000810100080000000083010008850100081C
:100040008701000887010008870100088701000870
:100050008701000887010008870100088701000860
:100060008701000887010008870100088701000850
:100070008701000887010008870100088701000840
:100080008701000887010008870100088701000830
:100090008701000887010008870100088701000820
:1000A0008701000887010008870100088701000810
:1000B0008701000887010008870100088701000800
:1000C00087010008870100088701000887010008F0
:1000D00087010008870100088701000887010008E0
:1000E00087010008870100088701000800F002F876
:1000F00000F02CF80AA090E8000C82448344AAF196
:100100000107DA4501D100F021F8AFF2090EBAE893
:100110000F0013F0010F18BFFB1A43F0010318473B
:100120006C0600007C060000002300240025002649
:10013000103A28BF78C1FBD8520728BF30C148BF4A
:100140000B6070471FB51FBD10B510BD00F031F832
:100150001146FFF7F7FF00F001FB00F04FF803B482
:10016000FFF7F2FF03BC00F057F800000948804792
:1001700009480047FEE7FEE7FEE7FEE7FEE7FEE789
:10018000FEE7FEE7FEE7FEE704480549054A064BA1
:1001900070470000F5060008ED0000086000002030
:1001A0006006002060020020600200207047704757
:1001B0007047754600F02CF8AE4605006946534678
:1001C00020F00700854618B020B5FFF7DDFFBDE839
:1001D00020404FF000064FF000074FF000084FF0AE
:1001E000000BAC46ACE8C009ACE8C009ACE8C009FB
:1001F000ACE8C00921F007018D46704710B50446F0
:10020000AFF300802046BDE81040FFF7A8BF000014
:10021000004870470000002001491820ABBEFEE7EF
:10022000260002007047000088B007900691002069
:100230000590049003900290019000900698C07879
:1002400000F00F0005900698C078C006002806D57B
:10025000FFE706988178059808430590FFE7069820
:10026000007800284BD0FFE7079800680190002035
:100270000390FFE7039807283DD8FFE70399012083
:1002800088400290069800880299084004900498DB
:10029000029988422AD1FFE70398800002900299D0
:1002A0000F2088400090009901988843019005989C
:1002B000029900FA01F10198084301900698C0786C
:1002C000282806D1FFE70399012088400799486153
:1002D0000BE00698C078482806D1FFE70399012073
:1002E000884007990861FFE7FFE7FFE7FFE703980A
:1002F00001300390BEE7019807990860FFE7069870
:100300000088B0F5807F50DBFFE7079840680190D8
:1003100000200390FFE70398072842D8FFE70398DF
:1003200000F1080101208840029006980088029997
:10033000084004900498029988422DD1FFE7039861
:100340008000029002990F20884000900099019847
:10035000884301900598029900FA01F10198084339
:1003600001900698C078282808D1FFE7039800F18B
:1003700008010120884007994861FFE70698C07886
:10038000482808D1FFE7039800F1080101208840C0
:1003900007990861FFE7FFE7FFE703980130039043
:1003A000B9E7019807994860FFE708B07047000077
:1003B00082B001908DF803109DF8030048B1FFE76B
:1003C000019A41F21801C4F2020108681043086062
:1003D00008E0019A41F21801C4F202010868904352
:1003E0000860FFE702B0704782B001908DF80310FB
:1003F0009DF8030030B1FFE70199088840F0400004
:10040000088005E00199088820F040000880FFE797
:1004100002B0704780B58EB0042001900121079191
:10042000FFF7C6FFE020ADF83400032002908DF8FE
:100430003600182005908DF8370040F60000C4F211
:10044000010003900DA90491FFF7EEFE019B029AB3
:10045000039804994FF0400CADF834C08DF8373054
:100460008DF83620FFF7E0FE07994FF48050FFF734
:100470009FFF05980021ADF820104FF48272ADF86F
:100480002220ADF82410ADF82610ADF828104FF456
:100490000071ADF82A10ADF82C008020ADF82E00C8
:1004A0000720ADF8300043F20000C4F201000690CE
:1004B00008A900F033F806980799FFF795FF0EB0EA
:1004C00080BD000082B00190ADF8021000208DF8D0
:1004D000010001980089BDF802100840000420B115
:1004E000FFE701208DF8010003E000208DF80100F6
:1004F000FFE79DF8010002B07047000081B0009056
:100500000098808901B0704782B00190ADF8021068
:10051000BDF802000199888102B0704783B0029053
:1005200001910020ADF8020002980088ADF80200A9
:10053000BDF8020000F44150ADF8020001990888AE
:100540004A8810438A881043CA8810430A89104396
:100550004A8910438A891043C9890143BDF80200C2
:100560000843ADF80200BDF8020002990880029924
:10057000888B20F4006088830198008A02990882A1
:1005800003B0704780B584B00390ADF80A100192B3
:100590000398BDF80A10FFF7B7FFFFE703980221A1
:1005A000FFF790FF08B9FFE7F8E7FFE7039801219D
:1005B000FFF788FF08B9FFE7F8E70398FFF79EFF0A
:1005C0000199088004B080BD80B500F001F880BDBD
:1005D00084B000200390029041F20001C4F20201B5
:1005E000086840F480300860FFE741F20000C4F280
:1005F0000200006800F4003002900398013003907C
:10060000FFE702990020019039B9FFE70398B0F5A0
:10061000A06018BF01200190FFE70198C0070028E3
:10062000E3D1FFE741F20000C4F20200006880035A
:10063000002803D5FFE70120029002E0002002908D
:10064000FFE70298012851D1FFE742F20001C4F20E
:100650000201086840F010000860086820F00700F8
:100660000860086840F00200086041F20401C4F22A
:10067000020100910868086008680860086840F492
:1006800080600860086820F47C100860086840F406
:10069000E810086041F20001C4F20201086840F06D
:1006A00080700860FFE741F20000C4F202000068B9
:1006B0008001002801D4FFE7F5E741F20401C4F20C
:1006C0000201086820F003000860086840F002009A
:1006D0000860FFE741F20400C4F20200006800F085
:1006E0000C00082801D0FFE7F4E700E0FFE704B0C2
:1006F0007047000080B541F20002C4F202021068A7
:1007000040F00100106041F20401C4F202010868E7
:100710000023CFF6FF031840086010684FF6FF7300
:10072000CFF6F66318401060106820F48020106047
:10073000086820F4FE00086041F20801C4F20201DA
:100740004FF41F000860FFF73FFF4EF60851CEF24E
:1007500000014FF00060086080BD000080B584B0EB
:1007600000200190039041F23420ADF80A00FFF719
:1007700051FEBDF80A1043F20000C4F2010002AAC3
:10078000FFF700FF019804B080BD00009C0700083F
:0C079000000000206006000028010008A6
:04000005080000ED02
:00000001FF
